{
  "_format": "hh-sol-artifact-1",
  "contractName": "EnglishAuction",
  "sourceName": "contracts/EnglishAuction.sol",
  "abi": [
    {
      "inputs": [
        {
          "internalType": "address",
          "name": "_nft",
          "type": "address"
        },
        {
          "internalType": "uint256",
          "name": "_nftId",
          "type": "uint256"
        },
        {
          "internalType": "uint256",
          "name": "_startingBid",
          "type": "uint256"
        },
        {
          "internalType": "uint256",
          "name": "_directBuyPrice",
          "type": "uint256"
        }
      ],
      "stateMutability": "nonpayable",
      "type": "constructor"
    },
    {
      "anonymous": false,
      "inputs": [
        {
          "indexed": true,
          "internalType": "address",
          "name": "sender",
          "type": "address"
        },
        {
          "indexed": false,
          "internalType": "uint256",
          "name": "amount",
          "type": "uint256"
        }
      ],
      "name": "Bid",
      "type": "event"
    },
    {
      "anonymous": false,
      "inputs": [
        {
          "indexed": false,
          "internalType": "address",
          "name": "buyer",
          "type": "address"
        },
        {
          "indexed": false,
          "internalType": "uint256",
          "name": "amount",
          "type": "uint256"
        }
      ],
      "name": "Buy",
      "type": "event"
    },
    {
      "anonymous": false,
      "inputs": [
        {
          "indexed": false,
          "internalType": "address",
          "name": "winner",
          "type": "address"
        },
        {
          "indexed": false,
          "internalType": "uint256",
          "name": "amount",
          "type": "uint256"
        }
      ],
      "name": "End",
      "type": "event"
    },
    {
      "anonymous": false,
      "inputs": [
        {
          "indexed": true,
          "internalType": "address",
          "name": "bidder",
          "type": "address"
        },
        {
          "indexed": false,
          "internalType": "uint256",
          "name": "amount",
          "type": "uint256"
        }
      ],
      "name": "OverTimeWithdraw",
      "type": "event"
    },
    {
      "anonymous": false,
      "inputs": [
        {
          "indexed": true,
          "internalType": "address",
          "name": "bidder",
          "type": "address"
        },
        {
          "indexed": false,
          "internalType": "uint256",
          "name": "amount",
          "type": "uint256"
        }
      ],
      "name": "Withdraw",
      "type": "event"
    },
    {
      "inputs": [],
      "name": "auctionTime",
      "outputs": [
        {
          "internalType": "uint256",
          "name": "",
          "type": "uint256"
        }
      ],
      "stateMutability": "view",
      "type": "function"
    },
    {
      "inputs": [],
      "name": "bid",
      "outputs": [],
      "stateMutability": "payable",
      "type": "function"
    },
    {
      "inputs": [
        {
          "internalType": "address",
          "name": "",
          "type": "address"
        }
      ],
      "name": "bids",
      "outputs": [
        {
          "internalType": "uint256",
          "name": "",
          "type": "uint256"
        }
      ],
      "stateMutability": "view",
      "type": "function"
    },
    {
      "inputs": [],
      "name": "buy",
      "outputs": [],
      "stateMutability": "payable",
      "type": "function"
    },
    {
      "inputs": [
        {
          "internalType": "uint256",
          "name": "_endAt",
          "type": "uint256"
        }
      ],
      "name": "changeEndAt",
      "outputs": [],
      "stateMutability": "nonpayable",
      "type": "function"
    },
    {
      "inputs": [],
      "name": "directBuyPrice",
      "outputs": [
        {
          "internalType": "uint256",
          "name": "",
          "type": "uint256"
        }
      ],
      "stateMutability": "view",
      "type": "function"
    },
    {
      "inputs": [],
      "name": "end",
      "outputs": [],
      "stateMutability": "nonpayable",
      "type": "function"
    },
    {
      "inputs": [],
      "name": "endAt",
      "outputs": [
        {
          "internalType": "uint256",
          "name": "",
          "type": "uint256"
        }
      ],
      "stateMutability": "view",
      "type": "function"
    },
    {
      "inputs": [],
      "name": "ended",
      "outputs": [
        {
          "internalType": "bool",
          "name": "",
          "type": "bool"
        }
      ],
      "stateMutability": "view",
      "type": "function"
    },
    {
      "inputs": [],
      "name": "highestBid",
      "outputs": [
        {
          "internalType": "uint256",
          "name": "",
          "type": "uint256"
        }
      ],
      "stateMutability": "view",
      "type": "function"
    },
    {
      "inputs": [],
      "name": "highestBidder",
      "outputs": [
        {
          "internalType": "address",
          "name": "",
          "type": "address"
        }
      ],
      "stateMutability": "view",
      "type": "function"
    },
    {
      "inputs": [],
      "name": "initialBid",
      "outputs": [
        {
          "internalType": "uint256",
          "name": "",
          "type": "uint256"
        }
      ],
      "stateMutability": "view",
      "type": "function"
    },
    {
      "inputs": [],
      "name": "nft",
      "outputs": [
        {
          "internalType": "contract IERC721",
          "name": "",
          "type": "address"
        }
      ],
      "stateMutability": "view",
      "type": "function"
    },
    {
      "inputs": [],
      "name": "nftId",
      "outputs": [
        {
          "internalType": "uint256",
          "name": "",
          "type": "uint256"
        }
      ],
      "stateMutability": "view",
      "type": "function"
    },
    {
      "inputs": [],
      "name": "overTimeWithdraw",
      "outputs": [],
      "stateMutability": "nonpayable",
      "type": "function"
    },
    {
      "inputs": [],
      "name": "seller",
      "outputs": [
        {
          "internalType": "address payable",
          "name": "",
          "type": "address"
        }
      ],
      "stateMutability": "view",
      "type": "function"
    },
    {
      "inputs": [],
      "name": "sellerPendingTime",
      "outputs": [
        {
          "internalType": "uint256",
          "name": "",
          "type": "uint256"
        }
      ],
      "stateMutability": "view",
      "type": "function"
    },
    {
      "inputs": [],
      "name": "withdraw",
      "outputs": [],
      "stateMutability": "nonpayable",
      "type": "function"
    }
  ],
  "bytecode": "0x608060405234801561001057600080fd5b50604051610ce0380380610ce083398101604081905261002f916100c0565b8181116100825760405162461bcd60e51b815260206004820152601d60248201527f6469726563744275795072696365203c3d207374617274696e67426964000000604482015260640160405180910390fd5b600080546001600160a01b039095166001600160a01b031995861617905560019290925560028054909316331790925560059190915560075561010b565b600080600080608085870312156100d657600080fd5b84516001600160a01b03811681146100ed57600080fd5b60208601516040870151606090970151919890975090945092505050565b610bc68061011a6000396000f3fe6080604052600436106101095760003560e01c80637cc3ae8c11610095578063c3a720a811610064578063c3a720a81461028c578063c6bc5182146102ac578063cb8bdc56146102c2578063d57bde79146102d7578063efbe1c1c146102ed57600080fd5b80637cc3ae8c1461023257806391f9015714610248578063a6f2ae3a1461026d578063ba0b8e741461027557600080fd5b80633ccfd60b116100dc5780633ccfd60b146101a457806347ccca02146101b957806362ea82db146101d957806367ea4abb14610206578063700cdab11461021c57600080fd5b806308551a531461010e57806312fa6feb1461014b578063155f586d146101755780631998aeef1461019a575b600080fd5b34801561011a57600080fd5b5060025461012e906001600160a01b031681565b6040516001600160a01b0390911681526020015b60405180910390f35b34801561015757600080fd5b506004546101659060ff1681565b6040519015158152602001610142565b34801561018157600080fd5b5061018c62093a8081565b604051908152602001610142565b6101a2610302565b005b3480156101b057600080fd5b506101a26104d9565b3480156101c557600080fd5b5060005461012e906001600160a01b031681565b3480156101e557600080fd5b5061018c6101f4366004610b01565b60086020526000908152604090205481565b34801561021257600080fd5b5061018c60055481565b34801561022857600080fd5b5061018c60075481565b34801561023e57600080fd5b5061018c60035481565b34801561025457600080fd5b5060045461012e9061010090046001600160a01b031681565b6101a2610598565b34801561028157600080fd5b5061018c6203f48081565b34801561029857600080fd5b506101a26102a7366004610b31565b610763565b3480156102b857600080fd5b5061018c60015481565b3480156102ce57600080fd5b506101a26107af565b3480156102e357600080fd5b5061018c60065481565b3480156102f957600080fd5b506101a26108ff565b60045460ff161561032e5760405162461bcd60e51b815260040161032590610b4a565b60405180910390fd5b60075434106103725760405162461bcd60e51b815260206004820152601060248201526f3ab9b290313abc90333ab731ba34b7b760811b6044820152606401610325565b60045461010090046001600160a01b03161561042a5760035442106103a95760405162461bcd60e51b815260040161032590610b4a565b60065434116103ed5760405162461bcd60e51b815260206004820152601060248201526f1d985b1d59480f0f481a1a59da195cdd60821b6044820152606401610325565b60065460045461010090046001600160a01b03166000908152600860205260408120805490919061041f908490610b69565b909155506104829050565b6005543410156104715760405162461bcd60e51b81526020600482015260126024820152711d985b1d59480f081a5b9a5d1a585b109a5960721b6044820152606401610325565b61047e62093a8042610b69565b6003555b60048054610100600160a81b031916336101008102919091179091553460068190556040519081527fe684a55f31b79eca403df938249029212a5925ec6be8012e099b45bc1019e5d29060200160405180910390a2565b33600090815260086020526040902054806105235760405162461bcd60e51b815260206004820152600a6024820152696e6f2062616c616e636560b01b6044820152606401610325565b336000818152600860205260408082208290555183156108fc0291849190818181858888f1935050505015801561055e573d6000803e3d6000fd5b5060405181815233907f884edad9ce6fa2440d8a54cc123490eb96d2768479d49ff9c7366125a9424364906020015b60405180910390a250565b6007543410156105e35760405162461bcd60e51b815260206004820152601660248201527576616c7565203c20646972656374427579507269636560501b6044820152606401610325565b60045460ff16156106065760405162461bcd60e51b815260040161032590610b4a565b6004805460ff19166001179081905561010090046001600160a01b03161561067b5760065460045461010090046001600160a01b03166000908152600860205260408120805490919061065a908490610b69565b909155505060048054610100600160a81b0319163361010002179055346006555b600054600254600154604051632142170760e11b81526001600160a01b03928316600482015233602482015260448101919091529116906342842e0e90606401600060405180830381600087803b1580156106d557600080fd5b505af11580156106e9573d6000803e3d6000fd5b50506002546040516001600160a01b0390911692503480156108fc029250906000818181858888f19350505050158015610727573d6000803e3d6000fd5b50604080513381523460208201527fe3d4187f6ca4248660cc0ac8b8056515bac4a8132be2eca31d6d0cc170722a7e91015b60405180910390a1565b6002546001600160a01b031633146107aa5760405162461bcd60e51b815260206004820152600a6024820152693737ba1039b2b63632b960b11b6044820152606401610325565b600355565b60045460ff16156107d25760405162461bcd60e51b815260040161032590610b4a565b60045461010090046001600160a01b031633146108265760405162461bcd60e51b81526020600482015260126024820152713737ba103434b3b432b9ba103134b23232b960711b6044820152606401610325565b6203f4806003546108379190610b69565b4210156108865760405162461bcd60e51b815260206004820152601b60248201527f7374696c6c2070656e64696e672073656c6c657220616374696f6e00000000006044820152606401610325565b600654604051339082156108fc029083906000818181858888f193505050501580156108b6573d6000803e3d6000fd5b50600060065560048054610100600160a81b031916905560405181815233907fa807b12d1c9a39da8399f6bc5005600186bbe3e4a925f176f0a11fa645b726579060200161058d565b60045461010090046001600160a01b03166109485760405162461bcd60e51b81526020600482015260096024820152683737903134b23232b960b91b6044820152606401610325565b6002546001600160a01b0316331461098f5760405162461bcd60e51b815260206004820152600a6024820152693737ba1039b2b63632b960b11b6044820152606401610325565b6003544210156109cd5760405162461bcd60e51b81526020600482015260096024820152681b9bdd08195b99195960ba1b6044820152606401610325565b60045460ff16156109f05760405162461bcd60e51b815260040161032590610b4a565b6004805460ff191660019081178083556000546002549254604051632142170760e11b81526001600160a01b039485169581019590955261010090920483166024850152604484019190915216906342842e0e90606401600060405180830381600087803b158015610a6157600080fd5b505af1158015610a75573d6000803e3d6000fd5b50506002546006546040516001600160a01b03909216935080156108fc029250906000818181858888f19350505050158015610ab5573d6000803e3d6000fd5b50600454600654604080516101009093046001600160a01b0316835260208301919091527f7d7570b046e5ead3a4f3fbc9fa2445113625a1e79823776146316bafed6b8cc59101610759565b600060208284031215610b1357600080fd5b81356001600160a01b0381168114610b2a57600080fd5b9392505050565b600060208284031215610b4357600080fd5b5035919050565b602080825260059082015264195b99195960da1b604082015260600190565b80820180821115610b8a57634e487b7160e01b600052601160045260246000fd5b9291505056fea264697066735822122088cdeae355afd504f2f2b39725c7f21bd02302318e3e6ab9a9368427302f705164736f6c63430008140033",
  "linkReferences": {},
  "deployedLinkReferences": {}
}